{
  "_format": "hh-sol-artifact-1",
  "contractName": "MyEpicNFT",
  "sourceName": "contracts/MyEpicNFT.sol",
  "abi": [
    {
      "inputs": [],
      "stateMutability": "nonpayable",
      "type": "constructor"
    },
    {
      "anonymous": false,
      "inputs": [
        {
          "indexed": true,
          "internalType": "address",
          "name": "owner",
          "type": "address"
        },
        {
          "indexed": true,
          "internalType": "address",
          "name": "approved",
          "type": "address"
        },
        {
          "indexed": true,
          "internalType": "uint256",
          "name": "tokenId",
          "type": "uint256"
        }
      ],
      "name": "Approval",
      "type": "event"
    },
    {
      "anonymous": false,
      "inputs": [
        {
          "indexed": true,
          "internalType": "address",
          "name": "owner",
          "type": "address"
        },
        {
          "indexed": true,
          "internalType": "address",
          "name": "operator",
          "type": "address"
        },
        {
          "indexed": false,
          "internalType": "bool",
          "name": "approved",
          "type": "bool"
        }
      ],
      "name": "ApprovalForAll",
      "type": "event"
    },
    {
      "anonymous": false,
      "inputs": [
        {
          "indexed": false,
          "internalType": "address",
          "name": "sender",
          "type": "address"
        },
        {
          "indexed": false,
          "internalType": "uint256",
          "name": "tokenId",
          "type": "uint256"
        }
      ],
      "name": "NewEpicNFTMinted",
      "type": "event"
    },
    {
      "anonymous": false,
      "inputs": [
        {
          "indexed": true,
          "internalType": "address",
          "name": "from",
          "type": "address"
        },
        {
          "indexed": true,
          "internalType": "address",
          "name": "to",
          "type": "address"
        },
        {
          "indexed": true,
          "internalType": "uint256",
          "name": "tokenId",
          "type": "uint256"
        }
      ],
      "name": "Transfer",
      "type": "event"
    },
    {
      "inputs": [
        {
          "internalType": "address",
          "name": "to",
          "type": "address"
        },
        {
          "internalType": "uint256",
          "name": "tokenId",
          "type": "uint256"
        }
      ],
      "name": "approve",
      "outputs": [],
      "stateMutability": "nonpayable",
      "type": "function"
    },
    {
      "inputs": [
        {
          "internalType": "address",
          "name": "owner",
          "type": "address"
        }
      ],
      "name": "balanceOf",
      "outputs": [
        {
          "internalType": "uint256",
          "name": "",
          "type": "uint256"
        }
      ],
      "stateMutability": "view",
      "type": "function"
    },
    {
      "inputs": [
        {
          "internalType": "uint256",
          "name": "tokenId",
          "type": "uint256"
        }
      ],
      "name": "getApproved",
      "outputs": [
        {
          "internalType": "address",
          "name": "",
          "type": "address"
        }
      ],
      "stateMutability": "view",
      "type": "function"
    },
    {
      "inputs": [
        {
          "internalType": "address",
          "name": "owner",
          "type": "address"
        },
        {
          "internalType": "address",
          "name": "operator",
          "type": "address"
        }
      ],
      "name": "isApprovedForAll",
      "outputs": [
        {
          "internalType": "bool",
          "name": "",
          "type": "bool"
        }
      ],
      "stateMutability": "view",
      "type": "function"
    },
    {
      "inputs": [],
      "name": "makeAnEpicNFT",
      "outputs": [],
      "stateMutability": "nonpayable",
      "type": "function"
    },
    {
      "inputs": [],
      "name": "name",
      "outputs": [
        {
          "internalType": "string",
          "name": "",
          "type": "string"
        }
      ],
      "stateMutability": "view",
      "type": "function"
    },
    {
      "inputs": [
        {
          "internalType": "uint256",
          "name": "tokenId",
          "type": "uint256"
        }
      ],
      "name": "ownerOf",
      "outputs": [
        {
          "internalType": "address",
          "name": "",
          "type": "address"
        }
      ],
      "stateMutability": "view",
      "type": "function"
    },
    {
      "inputs": [
        {
          "internalType": "uint256",
          "name": "tokenId",
          "type": "uint256"
        }
      ],
      "name": "pickRandomColor",
      "outputs": [
        {
          "internalType": "string",
          "name": "",
          "type": "string"
        }
      ],
      "stateMutability": "view",
      "type": "function"
    },
    {
      "inputs": [
        {
          "internalType": "uint256",
          "name": "tokenId",
          "type": "uint256"
        }
      ],
      "name": "pickRandomFirstWord",
      "outputs": [
        {
          "internalType": "string",
          "name": "",
          "type": "string"
        }
      ],
      "stateMutability": "view",
      "type": "function"
    },
    {
      "inputs": [
        {
          "internalType": "uint256",
          "name": "tokenId",
          "type": "uint256"
        }
      ],
      "name": "pickRandomSecondWord",
      "outputs": [
        {
          "internalType": "string",
          "name": "",
          "type": "string"
        }
      ],
      "stateMutability": "view",
      "type": "function"
    },
    {
      "inputs": [
        {
          "internalType": "uint256",
          "name": "tokenId",
          "type": "uint256"
        }
      ],
      "name": "pickRandomThirdWord",
      "outputs": [
        {
          "internalType": "string",
          "name": "",
          "type": "string"
        }
      ],
      "stateMutability": "view",
      "type": "function"
    },
    {
      "inputs": [
        {
          "internalType": "address",
          "name": "from",
          "type": "address"
        },
        {
          "internalType": "address",
          "name": "to",
          "type": "address"
        },
        {
          "internalType": "uint256",
          "name": "tokenId",
          "type": "uint256"
        }
      ],
      "name": "safeTransferFrom",
      "outputs": [],
      "stateMutability": "nonpayable",
      "type": "function"
    },
    {
      "inputs": [
        {
          "internalType": "address",
          "name": "from",
          "type": "address"
        },
        {
          "internalType": "address",
          "name": "to",
          "type": "address"
        },
        {
          "internalType": "uint256",
          "name": "tokenId",
          "type": "uint256"
        },
        {
          "internalType": "bytes",
          "name": "data",
          "type": "bytes"
        }
      ],
      "name": "safeTransferFrom",
      "outputs": [],
      "stateMutability": "nonpayable",
      "type": "function"
    },
    {
      "inputs": [
        {
          "internalType": "address",
          "name": "operator",
          "type": "address"
        },
        {
          "internalType": "bool",
          "name": "approved",
          "type": "bool"
        }
      ],
      "name": "setApprovalForAll",
      "outputs": [],
      "stateMutability": "nonpayable",
      "type": "function"
    },
    {
      "inputs": [
        {
          "internalType": "bytes4",
          "name": "interfaceId",
          "type": "bytes4"
        }
      ],
      "name": "supportsInterface",
      "outputs": [
        {
          "internalType": "bool",
          "name": "",
          "type": "bool"
        }
      ],
      "stateMutability": "view",
      "type": "function"
    },
    {
      "inputs": [],
      "name": "symbol",
      "outputs": [
        {
          "internalType": "string",
          "name": "",
          "type": "string"
        }
      ],
      "stateMutability": "view",
      "type": "function"
    },
    {
      "inputs": [
        {
          "internalType": "uint256",
          "name": "tokenId",
          "type": "uint256"
        }
      ],
      "name": "tokenURI",
      "outputs": [
        {
          "internalType": "string",
          "name": "",
          "type": "string"
        }
      ],
      "stateMutability": "view",
      "type": "function"
    },
    {
      "inputs": [
        {
          "internalType": "address",
          "name": "from",
          "type": "address"
        },
        {
          "internalType": "address",
          "name": "to",
          "type": "address"
        },
        {
          "internalType": "uint256",
          "name": "tokenId",
          "type": "uint256"
        }
      ],
      "name": "transferFrom",
      "outputs": [],
      "stateMutability": "nonpayable",
      "type": "function"
    }
  ],
  "bytecode": "0x608060405260405180610100016040528060d381526020016200484360d39139600890816200002f919062000d24565b506040518060800160405280605681526020016200491660569139600990816200005a919062000d24565b506040518060e001604052806040518060400160405280600981526020017f46616e746173746963000000000000000000000000000000000000000000000081525081526020016040518060400160405280600481526020017f457069630000000000000000000000000000000000000000000000000000000081525081526020016040518060400160405280600881526020017f5465727269626c6500000000000000000000000000000000000000000000000081525081526020016040518060400160405280600581526020017f4372617a7900000000000000000000000000000000000000000000000000000081525081526020016040518060400160405280600481526020017f57696c640000000000000000000000000000000000000000000000000000000081525081526020016040518060400160405280600a81526020017f54657272696679696e670000000000000000000000000000000000000000000081525081526020016040518060400160405280600681526020017f53706f6f6b790000000000000000000000000000000000000000000000000000815250815250600a90600762000213929190620008fd565b506040518060e001604052806040518060400160405280600781526020017f43757063616b650000000000000000000000000000000000000000000000000081525081526020016040518060400160405280600581526020017f50697a7a6100000000000000000000000000000000000000000000000000000081525081526020016040518060400160405280600981526020017f4d696c6b7368616b65000000000000000000000000000000000000000000000081525081526020016040518060400160405280600581526020017f437572727900000000000000000000000000000000000000000000000000000081525081526020016040518060400160405280600781526020017f436869636b656e0000000000000000000000000000000000000000000000000081525081526020016040518060400160405280600881526020017f53616e647769636800000000000000000000000000000000000000000000000081525081526020016040518060400160405280600581526020017f53616c6164000000000000000000000000000000000000000000000000000000815250815250600b906007620003cc929190620008fd565b506040518061010001604052806040518060400160405280600681526020017f4e617275746f000000000000000000000000000000000000000000000000000081525081526020016040518060400160405280600681526020017f536173756b65000000000000000000000000000000000000000000000000000081525081526020016040518060400160405280600681526020017f53616b757261000000000000000000000000000000000000000000000000000081525081526020016040518060400160405280600481526020017f476f6b750000000000000000000000000000000000000000000000000000000081525081526020016040518060400160405280600581526020017f476161726100000000000000000000000000000000000000000000000000000081525081526020016040518060400160405280600681526020017f4d696e61746f000000000000000000000000000000000000000000000000000081525081526020016040518060400160405280600781526020017f4b616b617368690000000000000000000000000000000000000000000000000081525081526020016040518060400160405280600681526020017f4d61646172610000000000000000000000000000000000000000000000000000815250815250600c906008620005c19291906200095d565b506040518060c001604052806040518060400160405280600381526020017f726564000000000000000000000000000000000000000000000000000000000081525081526020016040518060400160405280600781526020017f233038433241380000000000000000000000000000000000000000000000000081525081526020016040518060400160405280600581526020017f626c61636b00000000000000000000000000000000000000000000000000000081525081526020016040518060400160405280600681526020017f79656c6c6f77000000000000000000000000000000000000000000000000000081525081526020016040518060400160405280600481526020017f626c75650000000000000000000000000000000000000000000000000000000081525081526020016040518060400160405280600581526020017f677265656e000000000000000000000000000000000000000000000000000000815250815250600d9060066200073f929190620009bd565b503480156200074d57600080fd5b506040518060400160405280600981526020017f5371756172654e465400000000000000000000000000000000000000000000008152506040518060400160405280600681526020017f53515541524500000000000000000000000000000000000000000000000000008152508160009081620007cb919062000d24565b508060019081620007dd919062000d24565b5050506200082b6040518060400160405280601e81526020017f54686973206973206d79204e465420636f6e74726163742e20576f61682100008152506200083160201b620011101760201c565b62000ebe565b620008d18160405160240162000848919062000e9a565b6040516020818303038152906040527f41304fac000000000000000000000000000000000000000000000000000000007bffffffffffffffffffffffffffffffffffffffffffffffffffffffff19166020820180517bffffffffffffffffffffffffffffffffffffffffffffffffffffffff8381831617835250505050620008d460201b60201c565b50565b60008151905060006a636f6e736f6c652e6c6f679050602083016000808483855afa5050505050565b8280548282559060005260206000209081019282156200094a579160200282015b828111156200094957825182908162000938919062000d24565b50916020019190600101906200091e565b5b50905062000959919062000a1d565b5090565b828054828255906000526020600020908101928215620009aa579160200282015b82811115620009a957825182908162000998919062000d24565b50916020019190600101906200097e565b5b509050620009b9919062000a1d565b5090565b82805482825590600052602060002090810192821562000a0a579160200282015b8281111562000a09578251829081620009f8919062000d24565b5091602001919060010190620009de565b5b50905062000a19919062000a1d565b5090565b5b8082111562000a41576000818162000a37919062000a45565b5060010162000a1e565b5090565b50805462000a539062000b13565b6000825580601f1062000a67575062000a88565b601f01602090049060005260206000209081019062000a87919062000a8b565b5b50565b5b8082111562000aa657600081600090555060010162000a8c565b5090565b600081519050919050565b7f4e487b7100000000000000000000000000000000000000000000000000000000600052604160045260246000fd5b7f4e487b7100000000000000000000000000000000000000000000000000000000600052602260045260246000fd5b6000600282049050600182168062000b2c57607f821691505b60208210810362000b425762000b4162000ae4565b5b50919050565b60008190508160005260206000209050919050565b60006020601f8301049050919050565b600082821b905092915050565b60006008830262000bac7fffffffffffffffffffffffffffffffffffffffffffffffffffffffffffffffff8262000b6d565b62000bb8868362000b6d565b95508019841693508086168417925050509392505050565b6000819050919050565b6000819050919050565b600062000c0562000bff62000bf98462000bd0565b62000bda565b62000bd0565b9050919050565b6000819050919050565b62000c218362000be4565b62000c3962000c308262000c0c565b84845462000b7a565b825550505050565b600090565b62000c5062000c41565b62000c5d81848462000c16565b505050565b5b8181101562000c855762000c7960008262000c46565b60018101905062000c63565b5050565b601f82111562000cd45762000c9e8162000b48565b62000ca98462000b5d565b8101602085101562000cb9578190505b62000cd162000cc88562000b5d565b83018262000c62565b50505b505050565b600082821c905092915050565b600062000cf96000198460080262000cd9565b1980831691505092915050565b600062000d14838362000ce6565b9150826002028217905092915050565b62000d2f8262000aaa565b67ffffffffffffffff81111562000d4b5762000d4a62000ab5565b5b62000d57825462000b13565b62000d6482828562000c89565b600060209050601f83116001811462000d9c576000841562000d87578287015190505b62000d93858262000d06565b86555062000e03565b601f19841662000dac8662000b48565b60005b8281101562000dd65784890151825560018201915060208501945060208101905062000daf565b8683101562000df6578489015162000df2601f89168262000ce6565b8355505b6001600288020188555050505b505050505050565b600082825260208201905092915050565b60005b8381101562000e3c57808201518184015260208101905062000e1f565b60008484015250505050565b6000601f19601f8301169050919050565b600062000e668262000aaa565b62000e72818562000e0b565b935062000e8481856020860162000e1c565b62000e8f8162000e48565b840191505092915050565b6000602082019050818103600083015262000eb6818462000e59565b905092915050565b6139758062000ece6000396000f3fe608060405234801561001057600080fd5b50600436106101165760003560e01c806370a08231116100a2578063b88d4fde11610071578063b88d4fde14610317578063c575757a14610333578063c87b56dd14610363578063de9d132f14610393578063e985e9c51461039d57610116565b806370a082311461027d57806395d89b41146102ad578063a22cb465146102cb578063b187301f146102e757610116565b806323b872dd116100e957806323b872dd146101b55780632de38d68146101d157806342842e0e14610201578063514dc8c61461021d5780636352211e1461024d57610116565b806301ffc9a71461011b57806306fdde031461014b578063081812fc14610169578063095ea7b314610199575b600080fd5b610135600480360381019061013091906121c2565b6103cd565b604051610142919061220a565b60405180910390f35b6101536104af565b60405161016091906122b5565b60405180910390f35b610183600480360381019061017e919061230d565b610541565b604051610190919061237b565b60405180910390f35b6101b360048036038101906101ae91906123c2565b610587565b005b6101cf60048036038101906101ca9190612402565b61069e565b005b6101eb60048036038101906101e6919061230d565b6106fe565b6040516101f891906122b5565b60405180910390f35b61021b60048036038101906102169190612402565b6107f6565b005b6102376004803603810190610232919061230d565b610816565b60405161024491906122b5565b60405180910390f35b6102676004803603810190610262919061230d565b61090e565b604051610274919061237b565b60405180910390f35b61029760048036038101906102929190612455565b6109bf565b6040516102a49190612491565b60405180910390f35b6102b5610a76565b6040516102c291906122b5565b60405180910390f35b6102e560048036038101906102e091906124d8565b610b08565b005b61030160048036038101906102fc919061230d565b610b1e565b60405161030e91906122b5565b60405180910390f35b610331600480360381019061032c919061264d565b610c16565b005b61034d6004803603810190610348919061230d565b610c78565b60405161035a91906122b5565b60405180910390f35b61037d6004803603810190610378919061230d565b610d70565b60405161038a91906122b5565b60405180910390f35b61039b610e82565b005b6103b760048036038101906103b291906126d0565b61107c565b6040516103c4919061220a565b60405180910390f35b60007f80ac58cd000000000000000000000000000000000000000000000000000000007bffffffffffffffffffffffffffffffffffffffffffffffffffffffff1916827bffffffffffffffffffffffffffffffffffffffffffffffffffffffff1916148061049857507f5b5e139f000000000000000000000000000000000000000000000000000000007bffffffffffffffffffffffffffffffffffffffffffffffffffffffff1916827bffffffffffffffffffffffffffffffffffffffffffffffffffffffff1916145b806104a857506104a7826111a9565b5b9050919050565b6060600080546104be9061273f565b80601f01602080910402602001604051908101604052809291908181526020018280546104ea9061273f565b80156105375780601f1061050c57610100808354040283529160200191610537565b820191906000526020600020905b81548152906001019060200180831161051a57829003601f168201915b5050505050905090565b600061054c82611213565b6004600083815260200190815260200160002060009054906101000a900473ffffffffffffffffffffffffffffffffffffffff169050919050565b60006105928261090e565b90508073ffffffffffffffffffffffffffffffffffffffff168373ffffffffffffffffffffffffffffffffffffffff1603610602576040517f08c379a00000000000000000000000000000000000000000000000000000000081526004016105f9906127e2565b60405180910390fd5b8073ffffffffffffffffffffffffffffffffffffffff1661062161125e565b73ffffffffffffffffffffffffffffffffffffffff161480610650575061064f8161064a61125e565b61107c565b5b61068f576040517f08c379a000000000000000000000000000000000000000000000000000000000815260040161068690612874565b60405180910390fd5b6106998383611266565b505050565b6106af6106a961125e565b8261131f565b6106ee576040517f08c379a00000000000000000000000000000000000000000000000000000000081526004016106e590612906565b60405180910390fd5b6106f98383836113b4565b505050565b6060600061073261070e8461161a565b60405160200161071e91906129ae565b60405160208183030381529060405261177a565b9050600a805490508161074591906129ff565b9050600a818154811061075b5761075a612a30565b5b9060005260206000200180546107709061273f565b80601f016020809104026020016040519081016040528092919081815260200182805461079c9061273f565b80156107e95780601f106107be576101008083540402835291602001916107e9565b820191906000526020600020905b8154815290600101906020018083116107cc57829003601f168201915b5050505050915050919050565b61081183838360405180602001604052806000815250610c16565b505050565b6060600061084a6108268461161a565b6040516020016108369190612aab565b60405160208183030381529060405261177a565b9050600d805490508161085d91906129ff565b9050600d818154811061087357610872612a30565b5b9060005260206000200180546108889061273f565b80601f01602080910402602001604051908101604052809291908181526020018280546108b49061273f565b80156109015780601f106108d657610100808354040283529160200191610901565b820191906000526020600020905b8154815290600101906020018083116108e457829003601f168201915b5050505050915050919050565b6000806002600084815260200190815260200160002060009054906101000a900473ffffffffffffffffffffffffffffffffffffffff169050600073ffffffffffffffffffffffffffffffffffffffff168173ffffffffffffffffffffffffffffffffffffffff16036109b6576040517f08c379a00000000000000000000000000000000000000000000000000000000081526004016109ad90612b19565b60405180910390fd5b80915050919050565b60008073ffffffffffffffffffffffffffffffffffffffff168273ffffffffffffffffffffffffffffffffffffffff1603610a2f576040517f08c379a0000000000000000000000000000000000000000000000000000000008152600401610a2690612bab565b60405180910390fd5b600360008373ffffffffffffffffffffffffffffffffffffffff1673ffffffffffffffffffffffffffffffffffffffff168152602001908152602001600020549050919050565b606060018054610a859061273f565b80601f0160208091040260200160405190810160405280929190818152602001828054610ab19061273f565b8015610afe5780601f10610ad357610100808354040283529160200191610afe565b820191906000526020600020905b815481529060010190602001808311610ae157829003601f168201915b5050505050905090565b610b1a610b1361125e565b83836117ad565b5050565b60606000610b52610b2e8461161a565b604051602001610b3e9190612c17565b60405160208183030381529060405261177a565b9050600b8054905081610b6591906129ff565b9050600b8181548110610b7b57610b7a612a30565b5b906000526020600020018054610b909061273f565b80601f0160208091040260200160405190810160405280929190818152602001828054610bbc9061273f565b8015610c095780601f10610bde57610100808354040283529160200191610c09565b820191906000526020600020905b815481529060010190602001808311610bec57829003601f168201915b5050505050915050919050565b610c27610c2161125e565b8361131f565b610c66576040517f08c379a0000000000000000000000000000000000000000000000000000000008152600401610c5d90612906565b60405180910390fd5b610c7284848484611919565b50505050565b60606000610cac610c888461161a565b604051602001610c989190612c85565b60405160208183030381529060405261177a565b9050600c8054905081610cbf91906129ff565b9050600c8181548110610cd557610cd4612a30565b5b906000526020600020018054610cea9061273f565b80601f0160208091040260200160405190810160405280929190818152602001828054610d169061273f565b8015610d635780601f10610d3857610100808354040283529160200191610d63565b820191906000526020600020905b815481529060010190602001808311610d4657829003601f168201915b5050505050915050919050565b6060610d7b82611213565b6000600660008481526020019081526020016000208054610d9b9061273f565b80601f0160208091040260200160405190810160405280929190818152602001828054610dc79061273f565b8015610e145780601f10610de957610100808354040283529160200191610e14565b820191906000526020600020905b815481529060010190602001808311610df757829003601f168201915b505050505090506000610e25611975565b90506000815103610e3a578192505050610e7d565b600082511115610e6f578082604051602001610e57929190612ca7565b60405160208183030381529060405292505050610e7d565b610e788461198c565b925050505b919050565b6000610e8e60076119f4565b90506000610e9b826106fe565b90506000610ea883610b1e565b90506000610eb584610c78565b90506000838383604051602001610ece93929190612ccb565b60405160208183030381529060405290506000610eea86610816565b90506000600882600985604051602001610f079493929190612de0565b60405160208183030381529060405290506000610f4c84610f2784611a02565b604051602001610f38929190612f7f565b604051602081830303815290604052611a02565b9050600081604051602001610f619190613010565b6040516020818303038152906040529050610fb06040518060400160405280601581526020017f0a2d2d2d2d2d2d2d2d2d2d2d2d2d2d2d2d2d2d2d2d0000000000000000000000815250611110565b610fb981611110565b610ff76040518060400160405280601581526020017f2d2d2d2d2d2d2d2d2d2d2d2d2d2d2d2d2d2d2d2d0a0000000000000000000000815250611110565b611001338a611b99565b61100b8982611bb7565b6110156007611c24565b6110386040518060600160405280602581526020016138db602591398a33611c3a565b7febb98688741ffa4c7589bf325de30cf7becb63de567842e1ccdb6cb949fdc82c338a604051611069929190613032565b60405180910390a1505050505050505050565b6000600560008473ffffffffffffffffffffffffffffffffffffffff1673ffffffffffffffffffffffffffffffffffffffff16815260200190815260200160002060008373ffffffffffffffffffffffffffffffffffffffff1673ffffffffffffffffffffffffffffffffffffffff16815260200190815260200160002060009054906101000a900460ff16905092915050565b6111a68160405160240161112491906122b5565b6040516020818303038152906040527f41304fac000000000000000000000000000000000000000000000000000000007bffffffffffffffffffffffffffffffffffffffffffffffffffffffff19166020820180517bffffffffffffffffffffffffffffffffffffffffffffffffffffffff8381831617835250505050611cd9565b50565b60007f01ffc9a7000000000000000000000000000000000000000000000000000000007bffffffffffffffffffffffffffffffffffffffffffffffffffffffff1916827bffffffffffffffffffffffffffffffffffffffffffffffffffffffff1916149050919050565b61121c81611d02565b61125b576040517f08c379a000000000000000000000000000000000000000000000000000000000815260040161125290612b19565b60405180910390fd5b50565b600033905090565b816004600083815260200190815260200160002060006101000a81548173ffffffffffffffffffffffffffffffffffffffff021916908373ffffffffffffffffffffffffffffffffffffffff160217905550808273ffffffffffffffffffffffffffffffffffffffff166112d98361090e565b73ffffffffffffffffffffffffffffffffffffffff167f8c5be1e5ebec7d5bd14f71427d1e84f3dd0314c0f7b2291e5b200ac8c7c3b92560405160405180910390a45050565b60008061132b8361090e565b90508073ffffffffffffffffffffffffffffffffffffffff168473ffffffffffffffffffffffffffffffffffffffff16148061136d575061136c818561107c565b5b806113ab57508373ffffffffffffffffffffffffffffffffffffffff1661139384610541565b73ffffffffffffffffffffffffffffffffffffffff16145b91505092915050565b8273ffffffffffffffffffffffffffffffffffffffff166113d48261090e565b73ffffffffffffffffffffffffffffffffffffffff161461142a576040517f08c379a0000000000000000000000000000000000000000000000000000000008152600401611421906130cd565b60405180910390fd5b600073ffffffffffffffffffffffffffffffffffffffff168273ffffffffffffffffffffffffffffffffffffffff1603611499576040517f08c379a00000000000000000000000000000000000000000000000000000000081526004016114909061315f565b60405180910390fd5b6114a4838383611d6e565b6114af600082611266565b6001600360008573ffffffffffffffffffffffffffffffffffffffff1673ffffffffffffffffffffffffffffffffffffffff16815260200190815260200160002060008282546114ff91906131ae565b925050819055506001600360008473ffffffffffffffffffffffffffffffffffffffff1673ffffffffffffffffffffffffffffffffffffffff168152602001908152602001600020600082825461155691906131e2565b92505081905550816002600083815260200190815260200160002060006101000a81548173ffffffffffffffffffffffffffffffffffffffff021916908373ffffffffffffffffffffffffffffffffffffffff160217905550808273ffffffffffffffffffffffffffffffffffffffff168473ffffffffffffffffffffffffffffffffffffffff167fddf252ad1be2c89b69c2b068fc378daa952ba7f163c4a11628f55a4df523b3ef60405160405180910390a4611615838383611d73565b505050565b606060008203611661576040518060400160405280600181526020017f30000000000000000000000000000000000000000000000000000000000000008152509050611775565b600082905060005b6000821461169357808061167c90613216565b915050600a8261168c919061325e565b9150611669565b60008167ffffffffffffffff8111156116af576116ae612522565b5b6040519080825280601f01601f1916602001820160405280156116e15781602001600182028036833780820191505090505b5090505b6000851461176e576001826116fa91906131ae565b9150600a8561170991906129ff565b603061171591906131e2565b60f81b81838151811061172b5761172a612a30565b5b60200101907effffffffffffffffffffffffffffffffffffffffffffffffffffffffffffff1916908160001a905350600a85611767919061325e565b94506116e5565b8093505050505b919050565b60008160405160200161178d919061328f565b6040516020818303038152906040528051906020012060001c9050919050565b8173ffffffffffffffffffffffffffffffffffffffff168373ffffffffffffffffffffffffffffffffffffffff160361181b576040517f08c379a0000000000000000000000000000000000000000000000000000000008152600401611812906132f2565b60405180910390fd5b80600560008573ffffffffffffffffffffffffffffffffffffffff1673ffffffffffffffffffffffffffffffffffffffff16815260200190815260200160002060008473ffffffffffffffffffffffffffffffffffffffff1673ffffffffffffffffffffffffffffffffffffffff16815260200190815260200160002060006101000a81548160ff0219169083151502179055508173ffffffffffffffffffffffffffffffffffffffff168373ffffffffffffffffffffffffffffffffffffffff167f17307eab39ab6107e8899845ad3d59bd9653f200f220920489ca2b5937696c318360405161190c919061220a565b60405180910390a3505050565b6119248484846113b4565b61193084848484611d78565b61196f576040517f08c379a000000000000000000000000000000000000000000000000000000000815260040161196690613384565b60405180910390fd5b50505050565b606060405180602001604052806000815250905090565b606061199782611213565b60006119a1611975565b905060008151116119c157604051806020016040528060008152506119ec565b806119cb8461161a565b6040516020016119dc929190612ca7565b6040516020818303038152906040525b915050919050565b600081600001549050919050565b606060008251905060008103611a2a5760405180602001604052806000815250915050611b94565b60006003600283611a3b91906131e2565b611a45919061325e565b6004611a5191906133a4565b90506000602082611a6291906131e2565b67ffffffffffffffff811115611a7b57611a7a612522565b5b6040519080825280601f01601f191660200182016040528015611aad5781602001600182028036833780820191505090505b5090506000604051806060016040528060408152602001613900604091399050600181016020830160005b86811015611b515760038101905062ffffff818a015116603f8160121c168401518060081b905060ff603f83600c1c1686015116810190508060081b905060ff603f8360061c1686015116810190508060081b905060ff603f831686015116810190508060e01b90508084526004840193505050611ad8565b506003860660018114611b6b5760028114611b7b57611b86565b613d3d60f01b6002830352611b86565b603d60f81b60018303525b508484525050819450505050505b919050565b611bb3828260405180602001604052806000815250611eff565b5050565b611bc082611d02565b611bff576040517f08c379a0000000000000000000000000000000000000000000000000000000008152600401611bf690613458565b60405180910390fd5b80600660008481526020019081526020016000209081611c1f919061360f565b505050565b6001816000016000828254019250508190555050565b611cd4838383604051602401611c52939291906136e1565b6040516020818303038152906040527f1c7ec448000000000000000000000000000000000000000000000000000000007bffffffffffffffffffffffffffffffffffffffffffffffffffffffff19166020820180517bffffffffffffffffffffffffffffffffffffffffffffffffffffffff8381831617835250505050611cd9565b505050565b60008151905060006a636f6e736f6c652e6c6f679050602083016000808483855afa5050505050565b60008073ffffffffffffffffffffffffffffffffffffffff166002600084815260200190815260200160002060009054906101000a900473ffffffffffffffffffffffffffffffffffffffff1673ffffffffffffffffffffffffffffffffffffffff1614159050919050565b505050565b505050565b6000611d998473ffffffffffffffffffffffffffffffffffffffff16611f5a565b15611ef2578373ffffffffffffffffffffffffffffffffffffffff1663150b7a02611dc261125e565b8786866040518563ffffffff1660e01b8152600401611de49493929190613774565b6020604051808303816000875af1925050508015611e2057506040513d601f19601f82011682018060405250810190611e1d91906137d5565b60015b611ea2573d8060008114611e50576040519150601f19603f3d011682016040523d82523d6000602084013e611e55565b606091505b506000815103611e9a576040517f08c379a0000000000000000000000000000000000000000000000000000000008152600401611e9190613384565b60405180910390fd5b805181602001fd5b63150b7a0260e01b7bffffffffffffffffffffffffffffffffffffffffffffffffffffffff1916817bffffffffffffffffffffffffffffffffffffffffffffffffffffffff191614915050611ef7565b600190505b949350505050565b611f098383611f7d565b611f166000848484611d78565b611f55576040517f08c379a0000000000000000000000000000000000000000000000000000000008152600401611f4c90613384565b60405180910390fd5b505050565b6000808273ffffffffffffffffffffffffffffffffffffffff163b119050919050565b600073ffffffffffffffffffffffffffffffffffffffff168273ffffffffffffffffffffffffffffffffffffffff1603611fec576040517f08c379a0000000000000000000000000000000000000000000000000000000008152600401611fe39061384e565b60405180910390fd5b611ff581611d02565b15612035576040517f08c379a000000000000000000000000000000000000000000000000000000000815260040161202c906138ba565b60405180910390fd5b61204160008383611d6e565b6001600360008473ffffffffffffffffffffffffffffffffffffffff1673ffffffffffffffffffffffffffffffffffffffff168152602001908152602001600020600082825461209191906131e2565b92505081905550816002600083815260200190815260200160002060006101000a81548173ffffffffffffffffffffffffffffffffffffffff021916908373ffffffffffffffffffffffffffffffffffffffff160217905550808273ffffffffffffffffffffffffffffffffffffffff16600073ffffffffffffffffffffffffffffffffffffffff167fddf252ad1be2c89b69c2b068fc378daa952ba7f163c4a11628f55a4df523b3ef60405160405180910390a461215260008383611d73565b5050565b6000604051905090565b600080fd5b600080fd5b60007fffffffff0000000000000000000000000000000000000000000000000000000082169050919050565b61219f8161216a565b81146121aa57600080fd5b50565b6000813590506121bc81612196565b92915050565b6000602082840312156121d8576121d7612160565b5b60006121e6848285016121ad565b91505092915050565b60008115159050919050565b612204816121ef565b82525050565b600060208201905061221f60008301846121fb565b92915050565b600081519050919050565b600082825260208201905092915050565b60005b8381101561225f578082015181840152602081019050612244565b60008484015250505050565b6000601f19601f8301169050919050565b600061228782612225565b6122918185612230565b93506122a1818560208601612241565b6122aa8161226b565b840191505092915050565b600060208201905081810360008301526122cf818461227c565b905092915050565b6000819050919050565b6122ea816122d7565b81146122f557600080fd5b50565b600081359050612307816122e1565b92915050565b60006020828403121561232357612322612160565b5b6000612331848285016122f8565b91505092915050565b600073ffffffffffffffffffffffffffffffffffffffff82169050919050565b60006123658261233a565b9050919050565b6123758161235a565b82525050565b6000602082019050612390600083018461236c565b92915050565b61239f8161235a565b81146123aa57600080fd5b50565b6000813590506123bc81612396565b92915050565b600080604083850312156123d9576123d8612160565b5b60006123e7858286016123ad565b92505060206123f8858286016122f8565b9150509250929050565b60008060006060848603121561241b5761241a612160565b5b6000612429868287016123ad565b935050602061243a868287016123ad565b925050604061244b868287016122f8565b9150509250925092565b60006020828403121561246b5761246a612160565b5b6000612479848285016123ad565b91505092915050565b61248b816122d7565b82525050565b60006020820190506124a66000830184612482565b92915050565b6124b5816121ef565b81146124c057600080fd5b50565b6000813590506124d2816124ac565b92915050565b600080604083850312156124ef576124ee612160565b5b60006124fd858286016123ad565b925050602061250e858286016124c3565b9150509250929050565b600080fd5b600080fd5b7f4e487b7100000000000000000000000000000000000000000000000000000000600052604160045260246000fd5b61255a8261226b565b810181811067ffffffffffffffff8211171561257957612578612522565b5b80604052505050565b600061258c612156565b90506125988282612551565b919050565b600067ffffffffffffffff8211156125b8576125b7612522565b5b6125c18261226b565b9050602081019050919050565b82818337600083830152505050565b60006125f06125eb8461259d565b612582565b90508281526020810184848401111561260c5761260b61251d565b5b6126178482856125ce565b509392505050565b600082601f83011261263457612633612518565b5b81356126448482602086016125dd565b91505092915050565b6000806000806080858703121561266757612666612160565b5b6000612675878288016123ad565b9450506020612686878288016123ad565b9350506040612697878288016122f8565b925050606085013567ffffffffffffffff8111156126b8576126b7612165565b5b6126c48782880161261f565b91505092959194509250565b600080604083850312156126e7576126e6612160565b5b60006126f5858286016123ad565b9250506020612706858286016123ad565b9150509250929050565b7f4e487b7100000000000000000000000000000000000000000000000000000000600052602260045260246000fd5b6000600282049050600182168061275757607f821691505b60208210810361276a57612769612710565b5b50919050565b7f4552433732313a20617070726f76616c20746f2063757272656e74206f776e6560008201527f7200000000000000000000000000000000000000000000000000000000000000602082015250565b60006127cc602183612230565b91506127d782612770565b604082019050919050565b600060208201905081810360008301526127fb816127bf565b9050919050565b7f4552433732313a20617070726f76652063616c6c6572206973206e6f7420746f60008201527f6b656e206f776e6572206e6f7220617070726f76656420666f7220616c6c0000602082015250565b600061285e603e83612230565b915061286982612802565b604082019050919050565b6000602082019050818103600083015261288d81612851565b9050919050565b7f4552433732313a2063616c6c6572206973206e6f7420746f6b656e206f776e6560008201527f72206e6f7220617070726f766564000000000000000000000000000000000000602082015250565b60006128f0602e83612230565b91506128fb82612894565b604082019050919050565b6000602082019050818103600083015261291f816128e3565b9050919050565b600081905092915050565b7f46495253545f574f524400000000000000000000000000000000000000000000600082015250565b6000612967600a83612926565b915061297282612931565b600a82019050919050565b600061298882612225565b6129928185612926565b93506129a2818560208601612241565b80840191505092915050565b60006129b98261295a565b91506129c5828461297d565b915081905092915050565b7f4e487b7100000000000000000000000000000000000000000000000000000000600052601260045260246000fd5b6000612a0a826122d7565b9150612a15836122d7565b925082612a2557612a246129d0565b5b828206905092915050565b7f4e487b7100000000000000000000000000000000000000000000000000000000600052603260045260246000fd5b7f434f4c4f52000000000000000000000000000000000000000000000000000000600082015250565b6000612a95600583612926565b9150612aa082612a5f565b600582019050919050565b6000612ab682612a88565b9150612ac2828461297d565b915081905092915050565b7f4552433732313a20696e76616c696420746f6b656e2049440000000000000000600082015250565b6000612b03601883612230565b9150612b0e82612acd565b602082019050919050565b60006020820190508181036000830152612b3281612af6565b9050919050565b7f4552433732313a2061646472657373207a65726f206973206e6f74206120766160008201527f6c6964206f776e65720000000000000000000000000000000000000000000000602082015250565b6000612b95602983612230565b9150612ba082612b39565b604082019050919050565b60006020820190508181036000830152612bc481612b88565b9050919050565b7f5345434f4e445f574f5244000000000000000000000000000000000000000000600082015250565b6000612c01600b83612926565b9150612c0c82612bcb565b600b82019050919050565b6000612c2282612bf4565b9150612c2e828461297d565b915081905092915050565b7f54484952445f574f524400000000000000000000000000000000000000000000600082015250565b6000612c6f600a83612926565b9150612c7a82612c39565b600a82019050919050565b6000612c9082612c62565b9150612c9c828461297d565b915081905092915050565b6000612cb3828561297d565b9150612cbf828461297d565b91508190509392505050565b6000612cd7828661297d565b9150612ce3828561297d565b9150612cef828461297d565b9150819050949350505050565b60008190508160005260206000209050919050565b60008154612d1e8161273f565b612d288186612926565b94506001821660008114612d435760018114612d5857612d8b565b60ff1983168652811515820286019350612d8b565b612d6185612cfc565b60005b83811015612d8357815481890152600182019150602081019050612d64565b838801955050505b50505092915050565b7f3c2f746578743e3c2f7376673e00000000000000000000000000000000000000600082015250565b6000612dca600d83612926565b9150612dd582612d94565b600d82019050919050565b6000612dec8287612d11565b9150612df8828661297d565b9150612e048285612d11565b9150612e10828461297d565b9150612e1b82612dbd565b915081905095945050505050565b7f7b226e616d65223a202200000000000000000000000000000000000000000000600082015250565b6000612e5f600a83612926565b9150612e6a82612e29565b600a82019050919050565b7f222c20226465736372697074696f6e223a20224120686967686c79206163636c60008201527f61696d656420636f6c6c656374696f6e206f6620737175617265732e222c202260208201527f696d616765223a2022646174613a696d6167652f7376672b786d6c3b6261736560408201527f36342c0000000000000000000000000000000000000000000000000000000000606082015250565b6000612f1d606383612926565b9150612f2882612e75565b606382019050919050565b7f227d000000000000000000000000000000000000000000000000000000000000600082015250565b6000612f69600283612926565b9150612f7482612f33565b600282019050919050565b6000612f8a82612e52565b9150612f96828561297d565b9150612fa182612f10565b9150612fad828461297d565b9150612fb882612f5c565b91508190509392505050565b7f646174613a6170706c69636174696f6e2f6a736f6e3b6261736536342c000000600082015250565b6000612ffa601d83612926565b915061300582612fc4565b601d82019050919050565b600061301b82612fed565b9150613027828461297d565b915081905092915050565b6000604082019050613047600083018561236c565b6130546020830184612482565b9392505050565b7f4552433732313a207472616e736665722066726f6d20696e636f72726563742060008201527f6f776e6572000000000000000000000000000000000000000000000000000000602082015250565b60006130b7602583612230565b91506130c28261305b565b604082019050919050565b600060208201905081810360008301526130e6816130aa565b9050919050565b7f4552433732313a207472616e7366657220746f20746865207a65726f2061646460008201527f7265737300000000000000000000000000000000000000000000000000000000602082015250565b6000613149602483612230565b9150613154826130ed565b604082019050919050565b600060208201905081810360008301526131788161313c565b9050919050565b7f4e487b7100000000000000000000000000000000000000000000000000000000600052601160045260246000fd5b60006131b9826122d7565b91506131c4836122d7565b92508282039050818111156131dc576131db61317f565b5b92915050565b60006131ed826122d7565b91506131f8836122d7565b92508282019050808211156132105761320f61317f565b5b92915050565b6000613221826122d7565b91507fffffffffffffffffffffffffffffffffffffffffffffffffffffffffffffffff82036132535761325261317f565b5b600182019050919050565b6000613269826122d7565b9150613274836122d7565b925082613284576132836129d0565b5b828204905092915050565b600061329b828461297d565b915081905092915050565b7f4552433732313a20617070726f766520746f2063616c6c657200000000000000600082015250565b60006132dc601983612230565b91506132e7826132a6565b602082019050919050565b6000602082019050818103600083015261330b816132cf565b9050919050565b7f4552433732313a207472616e7366657220746f206e6f6e20455243373231526560008201527f63656976657220696d706c656d656e7465720000000000000000000000000000602082015250565b600061336e603283612230565b915061337982613312565b604082019050919050565b6000602082019050818103600083015261339d81613361565b9050919050565b60006133af826122d7565b91506133ba836122d7565b92508282026133c8816122d7565b915082820484148315176133df576133de61317f565b5b5092915050565b7f45524337323155524953746f726167653a2055524920736574206f66206e6f6e60008201527f6578697374656e7420746f6b656e000000000000000000000000000000000000602082015250565b6000613442602e83612230565b915061344d826133e6565b604082019050919050565b6000602082019050818103600083015261347181613435565b9050919050565b60006020601f8301049050919050565b600082821b905092915050565b6000600883026134c57fffffffffffffffffffffffffffffffffffffffffffffffffffffffffffffffff82613488565b6134cf8683613488565b95508019841693508086168417925050509392505050565b6000819050919050565b600061350c613507613502846122d7565b6134e7565b6122d7565b9050919050565b6000819050919050565b613526836134f1565b61353a61353282613513565b848454613495565b825550505050565b600090565b61354f613542565b61355a81848461351d565b505050565b5b8181101561357e57613573600082613547565b600181019050613560565b5050565b601f8211156135c35761359481612cfc565b61359d84613478565b810160208510156135ac578190505b6135c06135b885613478565b83018261355f565b50505b505050565b600082821c905092915050565b60006135e6600019846008026135c8565b1980831691505092915050565b60006135ff83836135d5565b9150826002028217905092915050565b61361882612225565b67ffffffffffffffff81111561363157613630612522565b5b61363b825461273f565b613646828285613582565b600060209050601f8311600181146136795760008415613667578287015190505b61367185826135f3565b8655506136d9565b601f19841661368786612cfc565b60005b828110156136af5784890151825560018201915060208501945060208101905061368a565b868310156136cc57848901516136c8601f8916826135d5565b8355505b6001600288020188555050505b505050505050565b600060608201905081810360008301526136fb818661227c565b905061370a6020830185612482565b613717604083018461236c565b949350505050565b600081519050919050565b600082825260208201905092915050565b60006137468261371f565b613750818561372a565b9350613760818560208601612241565b6137698161226b565b840191505092915050565b6000608082019050613789600083018761236c565b613796602083018661236c565b6137a36040830185612482565b81810360608301526137b5818461373b565b905095945050505050565b6000815190506137cf81612196565b92915050565b6000602082840312156137eb576137ea612160565b5b60006137f9848285016137c0565b91505092915050565b7f4552433732313a206d696e7420746f20746865207a65726f2061646472657373600082015250565b6000613838602083612230565b915061384382613802565b602082019050919050565b600060208201905081810360008301526138678161382b565b9050919050565b7f4552433732313a20746f6b656e20616c7265616479206d696e74656400000000600082015250565b60006138a4601c83612230565b91506138af8261386e565b602082019050919050565b600060208201905081810360008301526138d381613897565b905091905056fe416e204e465420772f20494420257320686173206265656e206d696e74656420746f2025734142434445464748494a4b4c4d4e4f505152535455565758595a6162636465666768696a6b6c6d6e6f707172737475767778797a303132333435363738392b2fa264697066735822122031bf9e5509307eda8bc80d4e19ad20732f1114974810876df533d802ea3a4bab64736f6c634300081100333c73766720786d6c6e733d27687474703a2f2f7777772e77332e6f72672f323030302f73766727207072657365727665417370656374526174696f3d27784d696e594d696e206d656574272076696577426f783d273020302033353020333530273e3c7374796c653e2e62617365207b2066696c6c3a2077686974653b20666f6e742d66616d696c793a2073657269663b20666f6e742d73697a653a20323470783b207d3c2f7374796c653e3c726563742077696474683d273130302527206865696768743d2731303025272066696c6c3d27272f3e3c7465787420783d273530252720793d273530252720636c6173733d27626173652720646f6d696e616e742d626173656c696e653d276d6964646c652720746578742d616e63686f723d276d6964646c65273e",
  "linkReferences": {},
  "deployedLinkReferences": {}
}